IRPF    202120203100029413267820   1130RENATO DE CARVALHO PEREIRA                                  SP3326759806102091980N0S          2WINDOWS 10    10.0   11.0.10            7107           0000000000000022144553202000004635010000000000000000000000000000000                                                0000000000000000000000000000618807000192                                                                                                                                                                                                              SAO PAULO                               RENATO DE CARVALHO PEREIRA                                  3349703772 00E04C3653C400000000           0000000000000000                            000000000000000000000000000000000000000               001                                                                  1100000001                                                                                                  258983660132 0                    0   2645681651
1629413267820RENATO DE CARVALHO PEREIRA                                  RUA            RUA ALBURQUERQUE DE SOUZA MUNIZ         227   AP 27 BL2            JD. AEROPORTO/SP   04635010 7107SAO PAULO                               SP   105                                                                                                                11           02091980258983660132 317010NNS             0000000N0               N0006188070001922214455320A                               11973069047 50322912   0                    3745467483
17294132678200000000000000000000000000000000000000000000000000000000000000000000000000000000000000000000000000000000000000000000000000000000000                          000000000000000000000000000000000000000000000000000000000000000000000000000000000000000000000000000000000000000000000000000000000000000000000000000000000000000000000000000000000000000534223353
1829413267820000000000000000000000000000000000000000000000000000000000000000000000000000000000000000000000000000000000000000000000000000000000000000000000000000000000000000000000000000000000000000000000000000000000000000000000000000000000000000000000000000000000000000000000000002719249900000000000000000000000000000000000000000000000000000000000000000000000000000000000000000000000000000000000000000000000000000000000000000000000000000000000000000000000000000000000000000000000000000000000000000000000000000000000000000000000000000000000000000000000000000000000000000000000000000000000000000000000000000000000000000000000000000000000000000000000000000000000000000000000000000000000000000000000000000000000001096586200
212941326782000618807000192VERTIE INDUSTRIA E COMERCIO EQUIP ELET E SERV               0000000000000000000000000000000000000000000000000000        00000000000002320736907
2729413267820110105                                                                                                                                                                                                                                                                                                                                                                                                                                                                                                                                00000243968180000000000000RUA AMERICO SAMARONE                    441   APT 71                                  MOINHO VELHO                            04284000 SP7107SAO PAULO                               1209.030                                                                         000000006930SEXTO OFICIAL DE REGISTRO DE IMOVEIS DE SAO PAULO           0000130062014                    00000000                                                                                          0000                             05013401038                   000            2560908763
2729413267820210105AUTOMOVEL I/PEUGEOT 207HB XR 2011/2012 , COR PRATA                                                                                                                                                                                                                                                                                                                                                                                                                                                                              00000017500000000000000000                                                                                                                                         0000                                        2                                                                                000000000002                                                            0000200000000                    0000000000347699928                                                                               0000                                                           000            1465064533
27294132678207301057 COTAS DE HGCR11 ADQUIRIDAS AO CUSTO MEDIO UNITARIO DE R$ 117.38                                                                                                                                                                                                                                                                                                                                                                                                                                                               00000000821720000000000000                                                                                                                                         0000                                        2                                                                                000000000002                                                            0000300000000                    00000000                                                                                          0000               11160521000122                              000T294132678203434487517
27294132678207301057 COTAS DE HGPO11 ADQUIRIDAS AO CUSTO MEDIO UNITARIO DE R$ 199.34                                                                                                                                                                                                                                                                                                                                                                                                                                                               00000001395390000000000000                                                                                                                                         0000                                        2                                                                                000000000002                                                            0000400000000                    00000000                                                                                          0000               11260134000168                              000T294132678203965333502
27294132678207301057 COTAS DE HSML11 ADQUIRIDAS AO CUSTO MEDIO UNITARIO DE R$ 102.07                                                                                                                                                                                                                                                                                                                                                                                                                                                               00000000714510000000000000                                                                                                                                         0000                                        2                                                                                000000000002                                                            0000500000000                    00000000                                                                                          0000               32892018000131                              000T294132678202198363399
272941326782073010510 COTAS DE KNCR11 ADQUIRIDAS AO CUSTO MEDIO UNITARIO DE R$ 103.55                                                                                                                                                                                                                                                                                                                                                                                                                                                              00000001035540000000000000                                                                                                                                         0000                                        2                                                                                000000000002                                                            0000600000000                    00000000                                                                                          0000               16706958000132                              000T294132678202485954903
272941326782073010510 COTAS DE MGFF11 ADQUIRIDAS AO CUSTO MEDIO UNITARIO DE R$  109.51                                                                                                                                                                                                                                                                                                                                                                                                                                                             00000001095180000000000000                                                                                                                                         0000                                        2                                                                                000000000002                                                            0000700000000                    00000000                                                                                          0000               29216463000177                              000T294132678204179453894
27294132678207301057 COTAS DE OUJP11 ADQUIRIDAS AO CUSTO MEDIO UNITARIO DE R$ 108.98                                                                                                                                                                                                                                                                                                                                                                                                                                                               00000000762890000000000000                                                                                                                                         0000                                        2                                                                                000000000002                                                            0000800000000                    00000000                                                                                          0000               26091656000150                              000T294132678201935505410
27294132678207301056 COTAS DE PATC11 ADQUIRIDAS AO CUSTO MEDIO UNITARIO DE R$ 104.53                                                                                                                                                                                                                                                                                                                                                                                                                                                               00000000627200000000000000                                                                                                                                         0000                                        2                                                                                000000000002                                                            0000900000000                    00000000                                                                                          0000               30048651000112                              000T294132678200925978094
27294132678207301056 COTAS DE RCRB11 ADQUIRIDAS AO CUSTO MEDIO UNITARIO DE R$ 193.44                                                                                                                                                                                                                                                                                                                                                                                                                                                               00000001160670000000000000                                                                                                                                         0000                                        2                                                                                000000000002                                                            0001000000000                    00000000                                                                                          0000               03683056000186                              000T294132678200532100159
27294132678207301056 COTAS DE SDIL11 ADQUIRIDAS AO CUSTO MEDIO UNITARIO DE R$ 117.90                                                                                                                                                                                                                                                                                                                                                                                                                                                               00000000707410000000000000                                                                                                                                         0000                                        2                                                                                000000000002                                                            0001100000000                    00000000                                                                                          0000               16671412000193                              000T294132678202799912807
27294132678207301056 COTAS DE VISC11 ADQUIRIDAS AO CUSTO MEDIO UNITARIO DE R$ 124.28                                                                                                                                                                                                                                                                                                                                                                                                                                                               00000000745680000000000000                                                                                                                                         0000                                        2                                                                                000000000002                                                            0001200000000                    00000000                                                                                          0000               17554274000125                              000T294132678201055372604
27294132678207301056 COTAS DE XPIN11 ADQUIRIDAS AO CUSTO MEDIO UNITARIO DE R$  116.36                                                                                                                                                                                                                                                                                                                                                                                                                                                              00000000698200000000000000                                                                                                                                         0000                                        2                                                                                000000000002                                                            0001300000000                    00000000                                                                                          0000               28516325000140                              000T294132678201008779277
27294132678207301056 COTAS DE XPML11 ADQUIRIDAS AO CUSTO MEDIO UNITARIO DE R$  115.40                                                                                                                                                                                                                                                                                                                                                                                                                                                              00000000692420000000000000                                                                                                                                         0000                                        2                                                                                000000000002                                                            0001400000000                    00000000                                                                                          0000               28757546000100                              000T294132678202405899657
T9294132678200000190000100001000010000000000000010000000000000000000000000000140000000000000000000000000000000000000000000000000000000000000000000000000000000000000000000000000000000000000000000000000000000000000000000000000000000000000000000000000000000000000000000000000000000000000000000000000000000000000000000000000000000000000000000000000000000000000000000000000000000000000000000000000000000000000000000000000000000000000000000000003664891402
